:100000000C94A3020C94D4020C94D4020C94D40249
:100010000C94D4020C94D4020C94D4020C94D40208
:100020000C94D4020C94370E0C94370E0C94370EAB
:100030000C94D4020C94D4020C94D4020C94D402E8
:100040000C94D4020C94D4020C94D4020C94D402D8
:100050000C94D4020C94D4020C94D4020C94ED0DA4
:100060000C94D4020C94B70D0C948D0D0C94D40206
:100070000C94D4020C94D4020C94D4020C94D402A8
:100080000C94D4020C94D4020C94D4020C94D40298
:100090000C94D4020C94D4020C94D4020C94D40288
:1000A0000C94D4020C94D4020C94D4020C94D40278
:1000B0000C94D4020C94D4020C94D4020C94D40268
:1000C0000C94D4020C94D4020C94D4020C94D40258
:1000D0000C94D4020C94D4020C94D4020C94D40248
:1000E0000C94D4020C9451050C94630A0C94120ADB
:1000F0000C942C0A0C9438040C941C0A0C940503E0
:100100000C944A0A0C948B0A0C94360A0C946504DD
:100110000C946B040C94D6020C946D0A0C944F044E
:100120000C946A040C94240A0C9453040C943C041C
:100130000C94BB030C9457040C94F1090C94770AAB
:100140000C9445040C94400A0C9449040C94E60564
:100150000C94B30E0C94810A0C945D040C946E0301
:100160000C9428030C94D8020C94FE090C943603CA
:100170000C943F040C94F9090C94C5050C943905B2
:100180000C942A040C94A1110C9434040C946F0464
:100190000C94080A0C9430040C94AD050C94D7020E
:1001A0000C94590A0C9414030C945B060C9461048F
:1001B000626C6E6B696E660076657200312E302E51
:1001C0003100682D626561740034350062756666C1
:1001D0002D696E00313032340064657600417264FE
:1001E00075696E6F204D65676100637075004154DD
:1001F0006D6567613235363000636F6E005374721F
:1002000065616D006275696C64004465632033301C
:1002100020323032312031313A35363A3031000037
:100220000000002100240027002A002D00300033A8
:100230000001010000040107010A0100000A0B028D
:10024000090C0D0E08070304010000000000000067
:10025000000000000000000000000000000000009E
:10026000000000000000001211100000000000005B
:10027000000000000000000000000000000000007E
:1002800000D702D702D702D702D702D702D702D7A8
:1002900002D702D702D702D702D702D702D702D796
:1002A00002D702D702D702D702D702D702D702D786
:1002B00002D702D702D702D702D702D702D702D776
:1002C00002D702D702D702D702D702D702D702D766
:1002D00002D702D702D702D702D702D702D702D756
:1002E00002D702D702D702D702D702D702D702D746
:1002F00002D702D702D702D702D702D702D702D736
:1003000002D702D702D702D702D702D702D702D725
:1003100002D702D702D702D702D702D702D702D715
:1003200002D702D702D702D702D702D702D702D705
:1003300002D702D702D702D702D702D702D702D7F5
:1003400002D702D702D702D702D702D702D702D7E5
:1003500002D702D702D702D702D702D702D702D7D5
:1003600002D702D702D702D702D702D702D702D7C5
:1003700002D702D702D702D702D702D702D702D7B5
:1003800002D6025B06D602D602D602D602D602D624
:1003900002D602D602D602D602D602D602D602D69D
:1003A00002D602D602D602D602D602D602D602D68D
:1003B00002D602D602D602D602D602D602D602D67D
:1003C00002D602D602D602D602D602D602D602D66D
:1003D00002D602D602D602D602D602D602D602D65D
:1003E00002D602D602D602D602D602D602D602D64D
:1003F00002D602D602D602D602D602D602D602D63D
:1004000002D602D602D602D602D602D602D602D62C
:1004100002D602D602D602D602D602D602D602D61C
:1004200002D602D602D602D602D602D602D602D60C
:1004300002D602D602D602D602D602D602D602D6FC
:1004400002D602D602D602D602D602D602D602D6EC
:1004500002D602D602D602D602D602D602D602D6DC
:1004600002D602D602D602D602D602D602D602D6CC
:1004700002D602D602D602D602D602D602D602D6BC
:1004800002000020002300260029002C002F00324B
:1004900000000100000301060109010000220025FF
:1004A0000028002B002E003100340002010000055E
:1004B0000108010B010505050507050808080802E4
:1004C0000202020A0A0808040404040101010101ED
:1004D0000101010303030303030303040707070CDC
:1004E0000C0C0C0C0C0C0C02020202060606060692
:1004F0000606060B0B0B0B0B0B0B0B01021020203F
:100500000808102040102040800201020108040267
:1005100001010204081020408080402010080402DD
:100520000180040201804020100804020108040236
:10053000010102040810204080010204081020403C
:100540008000B30EA11111241FBECFEFD1E2DEBF98
:10055000CDBF00E00CBF12E0A0E0B2E0E2E5F7E2C0
:1005600000E00BBF02C007900D92A039B107D9F788
:1005700023E0A0E9B2E001C01D92A93BB207E1F778
:1005800012E0C2EAD2E000E006C021970109802F04
:10059000FE010E945A13C13AD10780E00807A9F76B
:1005A0000E94980F0C9497130C94000008950895DE
:1005B000AF92BF92CF92DF92EF92FF920F931F9371
:1005C000CF93DF936C017B018B01040F151FEB01AF
:1005D0005E01AE18BF08C017D10759F06991D60166
:1005E000ED91FC910190F081E02DC6011995892BC8
:1005F00079F7C501DF91CF911F910F91FF90EF9097
:10060000DF90CF90BF90AF900895FC01538D448D43
:10061000252F30E0842F90E0821B930B541710F0AD
:10062000CF96089501970895FC01918D828D9817BA
:1006300061F0A28DAE0FBF2FB11D5D968C91928D92
:100640009F5F9F73928F90E008958FEF9FEF0895C3
:10065000FC01918D828D981731F0828DE80FF11D8C
:10066000858D90E008958FEF9FEF0895FC01918DA7
:10067000228D892F90E0805C9F4F821B91098F73A0
:10068000992708958DED92E00E94360321E0892B91
:1006900009F420E0822F0895FC01A48DA80FB92F42
:1006A000B11DA35ABF4F2C91848D90E001968F739A
:1006B0009927848FA689B7892C93A089B1898C91B9
:1006C000837080648C93938D848D981306C0028808
:1006D000F389E02D80818F7D80830895EF92FF92D2
:1006E0000F931F93CF93DF93EC0181E0888F9B8D55
:1006F0008C8D98131AC0E889F989808185FF15C00F
:100700009FB7F894EE89FF896083E889F989808131
:100710008370806480839FBF81E090E0DF91CF9100
:100720001F910F91FF90EF900895F62E0B8D10E022
:100730000F5F1F4F0F731127E02E8C8D8E110CC091
:100740000FB607FCFACFE889F989808185FFF5CFDC
:10075000CE010E944C03F1CFEB8DEC0FFD2FF11D6C
:10076000E35AFF4FF0829FB7F8940B8FEA89FB8919
:1007700080818062CFCFCF93DF93EC01888D882377
:10078000B9F0AA89BB89E889F9898C9185FD03C0F4
:10079000808186FD0DC00FB607FCF7CF8C9185FFD9
:1007A000F2CF808185FFEDCFCE010E944C03E9CFCF
:1007B000DF91CF91089580E090E0892B29F00E948D
:1007C000420381110E94000080E090E0892B49F0F3
:1007D00080E090E0892B29F00E94000081110E94A6
:1007E000000080E090E0892B49F080E090E0892BC8
:1007F00029F00E94000081110E94000080E090E03A
:10080000892B49F080E090E0892B29F00E940000BC
:1008100081110C94000008958150823108F05AC073
:10082000E82FF0E08827E85EFB4F8F4F0C945A13B7
:1008300038043C042A04300434046A043F044504A8
:1008400049044F04530457045D0461046A046504B9
:100850006B046F04809180008F77809380000895EF
:10086000809180008F7DF9CF80918000877FF5CFC8
:1008700084B58F7784BD089584B58F7DFBCF80913B
:10088000B0008F778093B00008958091B0008F7D85
:10089000F9CF809190008F77809390000895809198
:1008A00090008F7DF9CF80919000877FF5CF809168
:1008B000A0008F778093A00008958091A0008F7D85
:1008C000F9CF8091A000877FF5CF809120018F77AD
:1008D000809320010895809120018F7DF9CF809130
:1008E0002001877FF5CFCF93DF93282F30E0F901E8
:1008F000E55CFD4F8491F901E550FB4FD491F9017E
:10090000EB54FB4FC491CC23A1F081110E940C0445
:10091000EC2FF0E0EE0FFF1FEF57FB4FA591B491C6
:10092000EC91ED2381E090E009F480E0DF91CF913C
:10093000089580E090E0FACF1F93CF93DF93282FA4
:1009400030E0F901E55CFD4F8491F901E550FB4F82
:10095000D491F901EB54FB4FC491CC23A9F0162F8D
:1009600081110E940C04EC2FF0E0EE0FFF1FE55602
:10097000FB4FA591B4918FB7F894EC91111108C079
:10098000D095DE23DC938FBFDF91CF911F91089527
:10099000DE2BF8CFCF93DF9390E0FC01E550FB4FC7
:1009A00024918B549B4FFC0184918823C9F090E0E3
:1009B000880F991FFC01EF5DFD4FA591B491FC01DB
:1009C000E556FB4FC591D49161110DC09FB7F894C6
:1009D0008C91209582238C938881282328839FBF24
:1009E000DF91CF910895623051F49FB7F8943C9114
:1009F000822F809583238C93E8812E2BEFCF8FB7A6
:100A0000F894EC912E2B2C938FBFEACF3FB7F8943C
:100A10008091D5029091D602A091D702B091D802D0
:100A200026B5A89B05C02F3F19F00196A11DB11D49
:100A30003FBFBA2FA92F982F8827BC01CD01620F85
:100A4000711D811D911D42E0660F771F881F991F40
:100A50004A95D1F708950C9406052FB7F894609144
:100A6000D1027091D2028091D3029091D4022FBF13
:100A700008952091DB023091DC022817390771F4C8
:100A80009091D9028091DA02981741F0E091D90251
:100A9000F0E0E057FD4F808190E008958FEF9FEFE9
:100AA0000895EF92FF920F931F93CF93DF93DC0192
:100AB0005C96ED90FC905D97E114F10479F481E08F
:100AC00090E013969C938E93129790E080E0DF91D4
:100AD000CF911F910F91FF90EF9008955196ED9156
:100AE000FC91529750968C915097982F90950FB7F4
:100AF0005E962C915E97122F127021FD6095F894EE
:100B00002081112319F1282B2083E7012197F1F788
:100B100028E0462F50E0308160FF1AC0382B308328
:100B2000E7012197F1F7BA0175956795215089F78B
:100B3000112381F08081892380830FBF5C968D9182
:100B40009C910197F1F781E090E0C1CF2923DCCFA0
:100B50003923E5CF9081892BEFCF2091DB023091B3
:100B6000DC022817390771F48091DA022091D9024A
:100B700090E0805C9F4F821B910960E470E00E94CE
:100B80004613089590E080E008952091DB023091B3
:100B9000DC0228173907B9F49091D9028091DA0262
:100BA000981789F0E091D902F0E0E057FD4F80817D
:100BB0002091D90230E02F5F3F4F2F7333272093CE
:100BC000D90290E008958FEF9FEF089590E080E0C4
:100BD00008958F929F92AF92BF92CF92DF92EF9241
:100BE000FF920F931F93CF93DF936C017B018B01D7
:100BF000040F151F0E942D054B015C01E701C01772
:100C0000D107C8F40E942D05681979098A099B0942
:100C1000603777418105910570F4D6018D919C91E3
:100C2000DC01ED91FC910284F385E02D199597FD8F
:100C3000E6CF8993E4CFCE018E199F09DF91CF9142
:100C40001F910F91FF90EF90DF90CF90BF90AF90EA
:100C50009F908F900895CF93DF93FC010190002027
:100C6000E9F73197AF01481B590BBC018AE793E0C4
:100C70000E94D802EC0142E050E06BE472E08AE7A7
:100C800093E00E94D8028C0F9D1FDF91CF910895B1
:100C9000DC01ED91FC911197309761F012962D9146
:100CA0003C911397E217F30728F401900020E9F72D
:100CB000ED93FC930895FB01808191810E94E212E3
:100CC00081309105E1F48EE492E00E942B0661E010
:100CD00084E00E949C0460E085E00E949C0461E046
:100CE00082E30E949C0460E083E30E949C0460E035
:100CF00084E30E949C0461E085E30C949C04892BAE
:100D0000D1F48CE592E00E942B0660E084E00E9422
:100D10009C0460E085E00E949C0460E082E30E9405
:100D20009C0461E083E30E949C0460E084E30E94F1
:100D30009C0460E0E1CF0895FC01808191810097DF
:100D400039F0228133818217930710F40C94E21258
:100D500090E080E008950F931F93CF93DF93EC0111
:100D6000FB0101900020E9F78F01061B170B8A8118
:100D70009B81A801480F591F2C813D8124173507FD
:100D800068F028813981A801820F931F0E94761391
:100D90004A815B81400F511F5B834A83DF91CF9172
:100DA0001F910F9108950F931F93CF93DF93CDB7AA
:100DB000DEB762970FB6F894DEBF0FBECDBF8C01D1
:100DC000CB014AE0BE016F5F7F4F0E940913BE0155
:100DD0006F5F7F4FC8010E94AB0662960FB6F89412
:100DE000DEBF0FBECDBFDF91CF911F910F91089550
:100DF0003F924F925F926F927F928F929F92AF92AB
:100E0000BF92CF92DF92EF92FF920F931F93CF93F7
:100E1000DF93CDB7DEB7A3970FB6F894DEBF0FBE52
:100E2000CDBF6C012DB73EB73BA32AA30E942B0573
:100E3000D60157968D919C915897B12C029709F441
:100E4000EFC356968C9156978F5F56968C93569714
:100E500054962D913C915597232B19F0BB24B394B4
:100E6000D8C38330D8F7ED91FC918281882309F4AF
:100E7000B5C3FE0131964F0140E1442E512CD601FD
:100E8000ED91FC9180819181DC01ED91FC910084D8
:100E9000F185E02D1995181619060CF09FC345E051
:100EA00050E0BE01695E7F4FF601808191810E9412
:100EB000E905009721F3059709F047C0888D998DC2
:100EC000982789279827998F888F0A8D1B8D10273F
:100ED000012710271B8F0A8F892BB9F18F89811168
:100EE0003FC00E942D05D60116966D937D938D937C
:100EF0009C93199757962D913C9158974A8D5B8DED
:100F0000232B49F5288D398D2130310521F54930C4
:100F10005105A9F0483C510519F044305105A9F498
:100F2000F60166877787808B918B21E030E0308FE8
:100F3000278BC6010E94540D0E942B05A0CF83E091
:100F400090E058969C938E935797D601ED91FC9123
:100F50001282B12C5EC34530510509F090CFF5CF18
:100F6000F601808191810130F4E01F0740F0D60145
:100F700058961C921E925797FC01128280CFADB6F4
:100F8000BEB698012F5F3F4F4DB75EB7421B530B64
:100F90000FB6F8945EBF0FBE4DBFADB7BEB711968A
:100FA0007D01A801BD010E94E9058017910709F0A4
:100FB00065C0EA8DFB8DEE0DFF1D10820E942D0590
:100FC000F60166837783808791878F89813109F461
:100FD000F0C230F58630B9F08F3009F485C0823028
:100FE00029F5D60157968D919C915897892B59F4E4
:100FF000E1E0F0E05896FC93EE935797C6010E940B
:10100000540D0E942B05488D598DF12CE12C08ECD4
:1010100010E030E020E060E0C6010E94020C12C047
:101020008D31F9F258F4843109F45EC0F601108E66
:10103000178A0190F081E02D128204C0893241F0BC
:101040008733A1F70FB6F894BEBE0FBEADBE17CF63
:1010500084819581892B39F480E490E00E94BD1150
:10106000F601958384838A8D9B8D8E0D9F1DFA8258
:10107000E9829C838B83E816F90630F00FB6F8946A
:10108000BEBE0FBEADBE61CF40E450E0B701D60199
:1010900014968D919C910E948813D6011496ED911F
:1010A000FC9117AEC4010E944806D601ED91FC9157
:1010B0001197128258961C921E9257970E942D05E6
:1010C000DC01CB0188589341A109B109F60182875F
:1010D0009387A487B58786839783A087B187868700
:1010E0009787A08BB18BAECF888D998DD601559601
:1010F0009C938E935497EA8DFB8DF9A3E8A33F014F
:101100006E0C7F1CFD8EEC8E7F8E6E8EE614F704C7
:1011100008F06BC1D7010D911C91CE014C960E9435
:101120004806FC01808191818615970508F05DC114
:101130008C8D9D8DDC012C91213409F045C00196E8
:101140000E94E21236E3332E380E40970CF441C071
:101150000637B2E71B0709F4E3C108F042C30136C2
:10116000F2E71F0709F428C3043622E7120709F043
:101170003FC033243A949A8A898A1C8A1B8A5E8AE1
:101180004D8A66E772E0CE0141960E94AB06632D60
:1011900070E0CE0141960E94D306832D0E94730415
:1011A000BC01CE0141960E94D3060B891C890150D7
:1011B000110929893A89F12CE12C50E040E064E1E1
:1011C000C6010E94020C11C1CE014C960E949C06E1
:1011D000382E0637B2E71B0709F4A4C1C8F401365C
:1011E000F2E71F0709F4A7C0043622E7120719F235
:1011F00000371D4609F464C0D60154964D915C91A8
:10120000F12CE12C02E010E030E020E060E0D8CFEB
:10121000043647E7140709F473C0063757E7150784
:1012200009F49AC10136174739F7CE014C960E944E
:101230004806DC018D919C918615970508F0D5C074
:1012400061E0832D0E94CA04CE014C960E949C0648
:101250008C0161E0832D0E94CA040115110509F477
:1012600065C00F3F110509F09AC061E060C0CE0172
:101270004C960E949C06F82ECE014C960E94480681
:101280000C8D1D8D68E672E0C8010E947F1360E03E
:10129000892B79F06BE672E0C8010E947F13892BDD
:1012A00039F06FE672E0C8010E947F13892BE9F4E0
:1012B00061E08F2D0E94CA04CE014C960E94480620
:1012C0008C8D9D8D8615970508F08FC0DC012C91C3
:1012D000213469F601960E94E21226E3F22EF80EFE
:1012E000409754F2FF24FA94C7CF63E772E0C80135
:1012F0000E947F13892B01F762E0DBCF33243A94FD
:10130000CE014C960E944806FC0180819181861591
:10131000970508F06AC061E0832D0E94CA04CE01DF
:101320004C960E949C0661E0892B09F460E0832DB5
:101330000E949C045AC09A8A898A1C8A1B8A5E8AE7
:101340004D8A69E772E0CE0141960E94AB06632D9B
:1013500070E0CE0141960E94D306F5E3F31510F438
:101360002AEC320E90917B00832D8870977F892B19
:1013700080937B00832D8770806480937C008091B4
:101380007A00806480937A0080917A0086FDFCCF99
:101390008091780060917900762F682F02CFE32D3D
:1013A000F0E0E55CFD4FE491E150E23108F0B3C0BC
:1013B000F0E08827E152F64F8F4F0C945A13F10951
:1013C000F909FE09080A120A8B0A1C0A240A2C0AC7
:1013D000360A400A4A0A590A630A8B0A6D0A770AD2
:1013E000810A84B5806884BD07BDF601158A148A18
:1013F00029CE84B5806284BD08BDF7CF809180007E
:101400008068809380001093890000938800EDCF5E
:101410008091800080628093800010938B00009305
:101420008A00E3CF809180008860809380001093D1
:101430008D0000938C00D9CF8091B000806880939C
:10144000B0000093B300D1CF8091B0008062809350
:10145000B0000093B400C9CF809190008068809361
:1014600090001093990000939800BFCF8091900056
:1014700080628093900010939B0000939A00B5CFF8
:101480008091900088608093900010939D0000935D
:101490009C00ABCF8091A00080688093A0008091D9
:1014A000A0008F7B8093A0001093A9000093A80058
:1014B0009CCF8091A00080628093A0001093AB002D
:1014C0000093AA0092CF8091A00088608093A00032
:1014D0001093AD000093AC0088CF8091200180680C
:1014E0008093200110932901009328017ECF8091E1
:1014F000200180628093200110932B0100932A0128
:1015000074CF8091200188608093200110932D0179
:1015100000932C016ACF003811050CF0A6CE06CF3F
:1015200033243A94398237FC60CFE32DF0E0EE0F9C
:10153000FF1FEF57FD4F259134912115310509F417
:1015400054CFB2E0273D3B0709F44FCFC401F90166
:1015500019954BCF33243A94CE014C960E944806FD
:101560002C8D3D8DC9018E199F0948A159A1481B99
:10157000590B3A8329835C834B835E834D83398A7D
:1015800037FC33CFE32DF0E0EE0FFF1FEF57FC4F9A
:10159000259134912115310509F427CF52E0263DDC
:1015A000350709F422CFB401CE014196F90119950E
:1015B0001CCF8A8D9B8D8E0D9F1DFA82E9829C83A4
:1015C0008B83E816F90608F03DCDC4010E94480659
:1015D000D60155961C921E92549734CD0E942D052B
:1015E0002B013C01F60100811181D8011296BC90BB
:1015F00012978789908D8130910509F088C0B110CC
:101600002FC046865786608A718A108E178A129676
:101610001C92D60156968C915697815056968C9373
:101620008B2DAAA1BBA10FB6F894BEBF0FBEADBF54
:10163000A3960FB6F894DEBF0FBECDBFDF91CF915A
:101640001F910F91FF90EF90DF90CF90BF90AF90E0
:101650009F908F907F906F905F904F903F900895F4
:1016600086819781A085B185A3019201281B390B42
:101670004A0B5B0BDA01C901893136EF9307A105EB
:10168000B10530F0108E178AD80112961C9261CCE9
:10169000893C9F4AA105B10598F4F601828593859E
:1016A000A485B585A3019201281B390B4A0B5B0B5E
:1016B000DA01C901893C9F4AA105B10508F4CECBE6
:1016C000F60186859785A089B189A3019201281B1F
:1016D000390B4A0B5B0BDA01C90181379741A10530
:1016E000B10508F4BBCBF12CE12C10E000E030E0B8
:1016F00020E050E040E066E0C6010E94020CD60106
:101700001E964D925D926D927C92519782CF892B5D
:1017100009F0A4CB86859785A089B189481A590A12
:101720006A0A7B0ABB2079F0F1E74F16F7E15F0602
:101730006104710408F492CBD80112961C92F60150
:10174000108E178A06CCF9E84F16F3E15F066104A4
:10175000710408F483CBD8018D919C91DC01ED914B
:10176000FC910680F781E02D199581E0F8018283D4
:1017700081E090E0D60153969C938E9352971296F7
:101780002D913C91F90101900020E9F731978F01EB
:10179000021B130BF12CE12C41E050E06DE1C6017E
:1017A0000E94020CF60182859385A485B585868703
:1017B0009787A08BB18B52CB9A8A898A1C8A1B8A05
:1017C0005E8A4D8A69E772E0CE0141960E94AB06BF
:1017D0006FEF70E0CE0141960E94D30633243A9415
:1017E000BFCD043647E7140709F488CD063757E71D
:1017F000150709F4AFCE0136174709F0FDCC3324A5
:101800003A9413CD2F923F924F925F927F928F9294
:101810009F92AF92BF92CF92DF92EF92FF920F937F
:101820001F93CF93DF9300D01F921F92CDB7DEB7E7
:101830007C01762E6A015901DC01ED91FC918281D7
:10184000882309F4A9C0862F8D7F09F4D7C0B6E09C
:101850006B1709F4D3C0EDE16E1709F4CFC0D701BF
:1018600057968D919C91019709F096C0452B81F474
:10187000F701C488D588C114D10451F482899389B1
:10188000019609F4A0C0938B828BF701C288D3889C
:1018900084EF870D8930B0F5D7011A964D915D918F
:1018A0006D917C911D9716968D919D910D90BC9197
:1018B000A02D84179507A607B70710F4DB01CA010E
:1018C0001C012D01E2E42E0E311C411C511C0E9412
:1018D0002D05A2019101261B370B480B590BDA018C
:1018E000C901B7FD75C0C7010E94F8060E942D0509
:1018F000A2019101261B370B480B590BDA01C901D4
:10190000B7FFF1CF4801B5E08B0E911CA114B104D3
:1019100019F485E0882E912C7982DC24CD24DC24F6
:10192000DB82CA82902F812F9D838C83D701ED911A
:10193000FC9180819181DC01ED91FC910280F38129
:10194000E02D45E050E0BE016F5F7F4F19950E948A
:101950002B05772009F445C00115110509F441C094
:10196000D701ED91FC9180819181DC01ED91FC9199
:101970000280F381E02DA801B50119950B5F1F4F7F
:101980000E942B058016910679F1F701108E178AB7
:101990000190F081E02D12820F900F900F900F9028
:1019A0000F90DF91CF911F910F91FF90EF90DF90FB
:1019B000CF90BF90AF909F908F907F905F904F900F
:1019C0003F902F90089581E090E0938B828B5DCFC4
:1019D000D70156968C91811195CFC7010E94F806C8
:1019E00091CF05E010E0CECF0E942D05D7011A96C9
:1019F0006D937D938D939C931D97CECFC114D1048D
:101A000009F080CF35CFEF92FF920F931F93CF93C2
:101A1000DF93CDB7DEB7C650D4400FB6F894DEBF23
:101A20000FBECDBFCE010196CF5FDB4F9983888378
:101A3000C150D440CD5FDB4F19821882C350D440CF
:101A400080E094E0CB5FDB4F99838883C550D4401E
:101A50006CE772E0CE018F5F9B4F0E94AB06CD5FBB
:101A6000DB4F08811981C350D44001501109CF5F69
:101A7000DB4F28813981C150D440F12CE12C50E05A
:101A800040E06EE089E993E00E94020CCA5FDB4F00
:101A90000FB6F894DEBF0FBECDBFDF91CF911F917F
:101AA0000F91FF90EF900895CF92DF92EF92FF9207
:101AB0000F931F93CF93DF93CDB7DEB7C75AD109EA
:101AC0000FB6F894DEBF0FBECDBF6C0147E650E005
:101AD00068EB71E0CE0101960E940013CE01885997
:101AE0009F4F7C0107E610E09E012F5F3F4F50E0C3
:101AF00040E061E1C6010E94020CC955DF4F0FB6FC
:101B0000F894DEBF0FBECDBFDF91CF911F910F9133
:101B1000FF90EF90DF90CF9008951F920F920FB635
:101B20000F9211240BB60F922F933F934F935F9315
:101B30006F937F938F939F93AF93BF93EF93FF9395
:101B40008DED92E00E944C03FF91EF91BF91AF9118
:101B50009F918F917F916F915F914F913F912F91C5
:101B60000F900BBE0F900FBE0F901F9018951F92F5
:101B70000F920FB60F9211240BB60F922F938F93E3
:101B80009F93EF93FF93E091ED02F091EE0280813D
:101B9000E091F302F091F40282FD1DC090818091EA
:101BA000F6028F5F8F732091F702821741F0E09168
:101BB000F602F0E0E352FD4F958F8093F602FF911D
:101BC000EF919F918F912F910F900BBE0F900FBEB1
:101BD0000F901F9018958081F2CF1F920F920FB631
:101BE0000F9211242F933F938F939F93AF93BF93A3
:101BF0008091D1029091D202A091D302B091D402EF
:101C00003091D00223E0230F2D3758F50196A11D06
:101C1000B11D2093D0028093D1029093D202A09361
:101C2000D302B093D4028091D5029091D602A091B4
:101C3000D702B091D8020196A11DB11D8093D502A3
:101C40009093D602A093D702B093D802BF91AF91E0
:101C50009F918F913F912F910F900FBE0F901F90EA
:101C6000189526E8230F0296A11DB11DD2CF1F9211
:101C70000F920FB60F9211240BB60F922F933F9332
:101C80004F935F936F937F938F939F93AF93BF9384
:101C9000EF93FF93E091DB02F091DC02309749F083
:101CA000A685B7858585968D91FF16C09C91892361
:101CB000B1F4FF91EF91BF91AF919F918F917F917F
:101CC0006F915F914F913F912F910F900BBE0F90AD
:101CD0000FBE0F901F9018959C91892351F7A389EF
:101CE000B4899C918589809589238C93868997896D
:101CF0000197F1F7608D718DA685B785558538E020
:101D000020E0CB010197F1F7822F90E09595879520
:101D1000282F4C91452309F02068315091F7868D8A
:101D200081FD20958091DA0290E001968F739927CA
:101D30003091D902381799F0A091DA02B0E0A0579B
:101D4000BD4F2C938093DA02828D938D0197F1F72A
:101D5000A389B4898C919589892B8C93AACF868D80
:101D60008160868FF1CF1092E0021092DF0288EE40
:101D700093E0A0E0B0E08093E1029093E202A093B0
:101D8000E302B093E4022BE232E03093DE022093D0
:101D9000DD0225EC30E03093EA022093E90224ECE6
:101DA00030E03093EC022093EB0220EC30E03093F3
:101DB000EE022093ED0221EC30E03093F00220930C
:101DC000EF0222EC30E03093F2022093F10226EC95
:101DD00030E03093F4022093F3021092F602109256
:101DE000F7021092F8021092F9021092B3031092C7
:101DF000B2031092B40322EB33E030939A032093A2
:101E0000990310929C0310929B0310929E031092D0
:101E10009D0310929F031092A0031092A1031092B1
:101E2000A2031092A3031092A4031092A503109290
:101E3000A6031092A7031092A8031092A903109270
:101E4000AA031092AC031092AB031092AE0310924F
:101E5000AD031092AF031092B1031092B003109231
:101E60007D0310927C0380937E0390937F03A09365
:101E70008003B09381038DE392E090937B03809382
:101E80007A03109291031092900310929303109290
:101E9000920310929503109294031092970310925C
:101EA0009603609198036E7F6D7F609398036695AB
:101EB000617081E0682783E00E949C0461E083E018
:101EC0000E94CA04EEEFF4E0E491E0938A03E8EBA9
:101ED000F4E0E491F0E0EE0FFF1FE556FB4F859133
:101EE000949190938C0380938B0360E082E00E9436
:101EF000CA048091980381FD04C061E082E00E94E1
:101F00009C0482E080938603EDEFF4E0E491E0939B
:101F10008703E7EBF4E0E491F0E0EE0FFF1FEF57EB
:101F2000FB4F859194919093890380938803089542
:101F3000789484B5826084BD84B5816084BD85B5A4
:101F4000826085BD85B5816085BD80916E008160B0
:101F500080936E0010928100809181008260809356
:101F60008100809181008160809381008091800058
:101F70008160809380008091B10084608093B10083
:101F80008091B00081608093B00080919100826068
:101F90008093910080919100816080939100809165
:101FA00090008160809390008091A1008260809376
:101FB000A1008091A10081608093A1008091A00088
:101FC00081608093A0008091210182608093210133
:101FD00080912101816080932101809120018160A5
:101FE0008093200180917A00846080937A008091B0
:101FF0007A00826080937A0080917A008160809379
:102000007A0080917A00806880937A001092C100F3
:10201000E091ED02F091EE0282E08083E091E9022E
:10202000F091EA021082E091EB02F091EC028FEC69
:1020300080831092F502E091F102F091F20286E0C5
:102040008083E091EF02F091F002808180618083D3
:10205000E091EF02F091F002808188608083E0914E
:10206000EF02F091F002808180688083E091EF02BE
:10207000F091F00280818F7D808310929503109201
:102080009403109293031092920310929103109272
:1020900090038DEC90E0909397038093960380914A
:1020A000860396EF980F943048F02EEC280F2430DA
:1020B00028F022EC280F283008F061C025E530E038
:1020C00030939103209390032BEC30E030939303F3
:1020D0002093920320E930E03093950320939403FA
:1020E000943050F02EEC280F243030F022EC280FE2
:1020F000F0E0E0E0283010F4E8E6F0E020819430F1
:1021000028F032EC380F383008F4B9C031E0232B16
:10211000943048F09EEC980F943028F08E53F0E005
:10212000E0E0883010F4E8E6F0E0208320918603B8
:1021300036EF320F343008F4A4C08EEC820F8430B6
:1021400008F49FC082EC820F883008F49DC090E0B4
:1021500080E090938E0380938D03343008F097C015
:102160002650330B81E001C0880F2A95EAF780934F
:102170008F0380919603909197030197F1F78091D7
:10218000940390919503892B49F1E091DB02F09142
:10219000DC0223E0EA37F20709F1309739F0A3892E
:1021A000B4899C918589809589238C93809198032B
:1021B0008E7F809398031092DA021092D9028AE7F8
:1021C00093E09093DC028093DB02E0918D03F09129
:1021D0008E03808190918F03892B808380E092E031
:1021E00090939C0380939B030E942D05DC01CB01FF
:1021F00088589341A109B1098093A3039093A40344
:10220000A093A503B093A60380939F039093A0038C
:10221000A093A103B093A2038093A7039093A80374
:10222000A093A903B093AA03E0919903F0919A03B4
:102230008DED92E091838083E0919903F0919A0370
:1022400012821092B1031092B0030E942D056B010F
:102250007C018091B0039091B103019769F10E94D4
:102260002D056C197D098E099F096035764481051D
:10227000910510F589E993E00E94F806EACF34E071
:1022800046CF8BE690E065CF8DE690E062CF88E0A8
:10229000223309F46CCF84E0233309F468CF82E061
:1022A000243309F464CF82EC820F883018F42E5363
:1022B000330B58CF81E05BCF8091B0039091B10395
:1022C000019709F0B9CF61E084E00E94CA0461E09F
:1022D00085E00E94CA0461E082E30E94CA0461E0D2
:1022E00083E30E94CA0461E084E30E94CA0461E0BF
:1022F00085E30E94CA0460E084E00E949C0460E0E0
:1023000085E00E949C0460E082E30E949C0460E0FF
:1023100083E30E949C0460E084E30E949C0460E0EC
:1023200085E30E949C0489E993E00E94F80685E019
:102330000E947304019711F40E94030D0E94DB03B5
:10234000F2CF8DE392E090937B0380937A038091A8
:10235000DB029091DC028A57934071F4E0918D0387
:10236000F0918E03908180918F03809589238083E3
:102370001092DC021092DB0208950F931F93CF930B
:10238000DF938230910510F482E090E0E091B70392
:10239000F091B80330E020E0B0E0A0E0309799F48D
:1023A0002115310509F44AC0281B390B24303105A9
:1023B000D8F58A819B816115710589F1FB019383B1
:1023C0008283FE0111C0408151810281138148172F
:1023D0005907E0F04817590799F4109761F01296E1
:1023E0000C93129713961C933296CF01DF91CF91E5
:1023F0001F910F9108950093B7031093B803F4CF82
:102400002115310551F04217530738F0A901DB01BE
:102410009A01BD01DF01F801C1CFEF01F9CF90931F
:10242000B8038093B703CDCFFE01E20FF31F819372
:1024300091932250310939832883D7CF2091B50356
:102440003091B603232B41F42091230230912402D2
:102450003093B6032093B5032091210230912202DC
:102460002115310541F42DB73EB740912502509119
:102470002602241B350BE091B503F091B603E21759
:10248000F307A0F42E1B3F0B2817390778F0AC0197
:102490004E5F5F4F2417350748F04E0F5F1F509374
:1024A000B6034093B503819391939FCFF0E0E0E0B2
:1024B0009CCFCF93DF930097E9F0FC013297138212
:1024C0001282A091B703B091B803ED0130E020E093
:1024D0001097A1F420813181820F931F2091B503C1
:1024E0003091B6032817390709F061C0F093B6039D
:1024F000E093B503DF91CF910895EA01CE17DF078E
:10250000E8F54A815B819E0141155105B1F7E9016A
:10251000FB83EA8349915991C40FD51FEC17FD073E
:1025200061F4808191810296840F951FE90199835E
:102530008883828193819B838A83F0E0E0E0129616
:102540008D919C9113970097B9F52D913C9111971E
:10255000CD010296820F931F2091B5033091B603EF
:102560002817390739F6309751F51092B8031092B1
:10257000B703B093B603A093B503BCCFD383C28394
:1025800040815181840F951FC817D90761F44E5FB0
:102590005F4F88819981480F591F518340838A81F9
:1025A0009B81938382832115310509F0B0CFF0938D
:1025B000B803E093B7039ECFFD01DC01C0CF1382C7
:1025C0001282D7CFFC0188279927E89421912032E5
:1025D000E9F3293010F02E30C8F32B3241F02D32C0
:1025E00039F4689404C00E941413820F911D219144
:1025F00020532A30C0F31EF4909581959F4F089583
:10260000FB01DC0102C005900D9241505040D8F70B
:102610000895BB274A3031F4992322F4BDE2909506
:1026200081959F4F0C941D137AE0979F902D879F63
:10263000802D910D11240895BB27FB015527AA2752
:10264000880F991FAA1FA41710F0A41B839550513F
:10265000B9F7A05DAA3308F0A95DA193009779F7B7
:10266000B111B1931192CB010C943613DC01FC0132
:10267000672F71917723E1F7329704C07C916D93B6
:1026800070836291AE17BF07C8F3089597FB072EBA
:1026900016F4009407D077FD09D00E94621307FC5E
:1026A00005D03EF4909581959F4F08957095619562
:1026B0007F4F0895EE0FFF1F881F8BBF0790F69185
:1026C000E02D1994AA1BBB1B51E107C0AA1FBB1F19
:1026D000A617B70710F0A61BB70B881F991F5A95AE
:1026E000A9F780959095BC01CD010895FB01DC010F
:1026F00002C001900D9241505040D8F70895FB015F
:10270000DC018D91019080190110D9F3990B089586
:10271000FB01DC014150504048F001900D92002037
:10272000C9F701C01D9241505040E0F7089512E0F2
:10273000C2EAD2E000E006C0802FFE010E945A13D8
:102740002196011DC33AD10780E00807A9F7F89444
:02275000FFCFB9
:102752005F6E50506D35715A6E795F3839357243FC
:10276200366456464F4A4F416E58632D6165535346
:10277200000000B9038000000000006E03D80205CB
:1027820003BB03360314032803000000005105D8DD
:1027920002E605D702AD05C50539050D0A00446FED
:1027A2006F7220556E6C6F636B656400446F6F725D
:1027B200204C6F636B656400696E006F7574007006
:1027C200776D0070750064770061770054616D70F9
:1027D2006572696E672044657465637465640000A0
:00000001FF
