:100000000C9448010C9479010C9479010C947901B9
:100010000C9479010C9479010C9479010C94790178
:100020000C9479010C9438070C9438070C94380719
:100030000C9479010C9479010C9479010C94790158
:100040000C9479010C9479010C9479010C94790148
:100050000C9479010C9479010C9479010C94EE06BE
:100060000C9479010C94B8060C948E060C947901CA
:100070000C9479010C9479010C9479010C94790118
:100080000C9479010C9479010C9479010C94790108
:100090000C9479010C9479010C9479010C947901F8
:1000A0000C9479010C9479010C9479010C947901E8
:1000B0000C9479010C9479010C9479010C947901D8
:1000C0000C9479010C9479010C9479010C947901C8
:1000D0000C9479010C9479010C9479010C947901B8
:1000E0000C9479010C944D040C94C1040C940903F4
:1000F0000C94E9020C94FB020C94E3020C943D0E68
:100100000C940F030C94CC010C94DC020C94E204CC
:100110000C94CE020C940E030C94B4070C94D402ED
:100120000C944C040C9405030C94ED020C94E00226
:100130000C947B010C9413030C94B8010C941202E0
:100140000C9438060C945F020C94F7020C94DA01BC
:100150000C94F3020C947C010C9434040C94A904C8
:100160000C94D8020C94A9010C9401030000210006
:10017000240027002A002D00300033000101000078
:10018000040107010A0100000A0B02090C0D0E0808
:100190000703040100000000000000000000000050
:1001A000000000000000000000000000000000004F
:1001B000000012111000000000000000000000000C
:1001C000000000000000000000000000000020000F
:1001D0002300260029002C002F003200000100001F
:1001E00003010601090100002200250028002B0060
:1001F0002E003100340002010000050108010B014E
:1002000005050505070508080808020202020A0A92
:1002100008080404040401010101010101010303B0
:10022000030303030303040707070C0C0C0C0C0C5B
:100230000C0C0202020206060606060606060B0B58
:100240000B0B0B0B0B0B0102102020080810204099
:10025000102040800201020108040201010204088A
:100260001020408080402010080402018004020118
:100270008040201008040201080402010102040861
:10028000102040800102040810204080B4073D0E79
:1002900011241FBECFEFD1E2DEBFCDBF00E00CBF07
:1002A00024E0A4E4B3E001C01D92A737B207E1F750
:1002B00013E0A0E0B2E0E4E8F1E200E00BBF02C02E
:1002C00007900D92A434B107D9F711E0C7E4D1E04B
:1002D00000E006C021970109802FFE010E94750EE3
:1002E000C634D10780E00807A9F70E94CC080C9417
:1002F000B0100C9400000895AF92BF92CF92DF929D
:10030000EF92FF920F931F93CF93DF936C017B01CA
:100310008B01040F151FEB015E01AE18BF08C0175B
:10032000D10759F06991D601ED91FC910190F081CE
:10033000E02DC6011995892B79F7C501DF91CF9181
:100340001F910F91FF90EF90DF90CF90BF90AF90F3
:100350000895FC01538D448D252F30E0842F90E0CB
:10036000821B930B541710F0CF96089501970895B0
:10037000FC01918D828D981761F0A28DAE0FBF2F79
:10038000B11D5D968C91928D9F5F9F73928F90E0CF
:1003900008958FEF9FEF0895FC01918D828D98173E
:1003A00031F0828DE80FF11D858D90E008958FEF7B
:1003B0009FEF0895FC01918D228D892F90E0805C44
:1003C0009F4F821B91098F739927089589E993E0C4
:1003D0000E94DA0121E0892B09F420E0822F0895A0
:1003E000FC01A48DA80FB92FB11DA35ABF4F2C91AA
:1003F000848D90E001968F739927848FA689B789A1
:100400002C93A089B1898C91837080648C93938D97
:10041000848D981306C00288F389E02D80818F7D3A
:1004200080830895EF92FF920F931F93CF93DF93F2
:10043000EC0181E0888F9B8D8C8D98131AC0E88920
:10044000F989808185FF15C09FB7F894EE89FF89EF
:100450006083E889F98980818370806480839FBF8D
:1004600081E090E0DF91CF911F910F91FF90EF908D
:100470000895F62E0B8D10E00F5F1F4F0F7311279D
:10048000E02E8C8D8E110CC00FB607FCFACFE889D8
:10049000F989808185FFF5CFCE010E94F001F1CF6F
:1004A000EB8DEC0FFD2FF11DE35AFF4FF0829FB74C
:1004B000F8940B8FEA89FB8980818062CFCFCF933C
:1004C000DF93EC01888D8823B9F0AA89BB89E8897C
:1004D000F9898C9185FD03C0808186FD0DC00FB622
:1004E00007FCF7CF8C9185FFF2CF808185FFEDCFA0
:1004F000CE010E94F001E9CFDF91CF91089580E015
:1005000090E0892B29F00E94E60181110E940000F1
:1005100080E090E0892B49F080E090E0892B29F081
:100520000E94000081110E94000080E090E0892B71
:1005300049F080E090E0892B29F00E9400008111B1
:100540000E94000080E090E0892B49F080E090E07C
:10055000892B29F00E94000081110C94000008955D
:100560008150823108F05AC0E82FF0E08827E45427
:10057000FD4F8F4F0C94750EDC02E002CE02D402C8
:10058000D8020E03E302E902ED02F302F702FB02D6
:10059000010305030E0309030F0313038091800079
:1005A0008F77809380000895809180008F7DF9CFB0
:1005B00080918000877FF5CF84B58F7784BD0895C3
:1005C00084B58F7DFBCF8091B0008F778093B00092
:1005D00008958091B0008F7DF9CF809190008F7742
:1005E000809390000895809190008F7DF9CF809145
:1005F0009000877FF5CF8091A0008F778093A00037
:1006000008958091A0008F7DF9CF8091A000877F11
:10061000F5CF809120018F778093200108958091FC
:1006200020018F7DF9CF80912001877FF5CFCF9377
:10063000DF93282F30E0F901EA57FE4F8491F9014A
:10064000EA5BFD4FD491F901E050FE4FC491CC23F9
:10065000A1F081110E94B002EC2FF0E0EE0FFF1F1D
:10066000E453FE4FA591B491EC91ED2381E090E02D
:1006700009F480E0DF91CF91089580E090E0FACF17
:100680001F93CF93DF93282F30E0F901EA57FE4FF5
:100690008491F901EA5BFD4FD491F901E050FE4FDE
:1006A000C491CC23A9F0162F81110E94B002EC2F27
:1006B000F0E0EE0FFF1FEA51FE4FA591B4918FB706
:1006C000F894EC91111108C0D095DE23DC938FBF14
:1006D000DF91CF911F910895DE2BF8CFCF93DF9359
:1006E00090E0FC01EA5BFD4F249180509E4FFC019D
:1006F00084918823D1F090E0880F991FFC01E45980
:10070000FE4FA591B491FC01EA51FE4FC591D491E1
:1007100061110EC09FB7F8948C91E22FE0958E2363
:100720008C932881E223E8839FBFDF91CF910895C6
:100730008FB7F894EC91E22BEC938FBFF6CF3FB7D5
:10074000F8948091890390918A03A0918B03B091D2
:100750008C0326B5A89B05C02F3F19F00196A11D5B
:10076000B11D3FBFBA2FA92F982F8827BC01CD01FB
:10077000620F711D811D911D42E0660F771F881F5A
:10078000991F4A95D1F708958F929F92AF92BF9289
:10079000CF92DF92EF92FF924B015C010E949F0388
:1007A0006B017C010E949F036C197D098E099F09D2
:1007B000683E734081059105A8F321E0821A9108F3
:1007C000A108B10888EEC80E83E0D81EE11CF11C18
:1007D00081149104A104B10429F7FF90EF90DF90F8
:1007E000CF90BF90AF909F908F9008952FB7F894BF
:1007F00060918503709186038091870390918803AF
:100800002FBF08950F931F930E94F6036093A103D7
:100810007093A2038093A3039093A40389E993E0C8
:100820000E94B80197FF1DC00E94F6030091A1032A
:100830001091A2032091A3033091A403601B710BBC
:10084000820B930B00919D0310919E0320919F03B7
:100850003091A0036017710782079307F8F28FEFBA
:100860009FEF1F910F91089520918F033091900376
:100870002817390771F490918D0380918E03981792
:1008800041F0E0918D03F0E0EC5BFC4F808190E063
:1008900008958FEF9FEF08950895EF92FF920F93C1
:1008A0001F93CF93DF93DC015C96ED90FC905D97F6
:1008B000E114F10479F481E090E013969C938E9317
:1008C000129790E080E0DF91CF911F910F91FF9000
:1008D000EF9008955196ED91FC91529750968C911E
:1008E0005097982F90950FB75E962C915E97122F88
:1008F000127021FD6095F8942081112319F1282BA5
:100900002083E7012197F1F728E0462F50E030815E
:1009100060FF1AC0382B3083E7012197F1F7BA0145
:1009200075956795215089F7112381F0808189237E
:1009300080830FBF5C968D919C910197F1F781E0C8
:1009400090E0C1CF2923DCCF3923E5CF9081892BDB
:10095000EFCF20918F03309190032817390771F45E
:1009600080918E0320918D0390E0805C9F4F821BCD
:10097000910960E470E00E94610E089590E080E0CB
:10098000089520918F033091900328173907B9F407
:1009900090918D0380918E03981789F0E0918D03DB
:1009A000F0E0EC5BFC4F808120918D0330E02F5F05
:1009B0003F4F2F73332720938D0390E008958FEFDF
:1009C0009FEF089590E080E00895CF93DF93EC01CE
:1009D00060E08E810E94400361E08E810E944003AE
:1009E00060E08E810E9440038BE891E00197F1F76F
:1009F000DF91CF910895CF92DF92EF92FF920F9304
:100A00001F93CF93DF936C017C0187E0E80EF11C0C
:100A1000D0E0C0E0062F10E0B8010C2E02C07595A2
:100A200067950A94E2F76170F70181917F010E9456
:100A300040032196C430D10579F7C601DF91CF91EB
:100A40001F910F91FF90EF90DF90CF900C94E504F1
:100A5000CF92DF92EF92FF920F931F93CF93DF938A
:100A6000EC01F62E642F8C810E9440038D818F3F14
:100A700019F060E00E9440030F2D10E08F8584FF85
:100A800025C06E0187E0C80ED11CF12CE12CB80105
:100A90000E2C02C0759567950A94E2F76170F60115
:100AA00081916F010E944003FFEFEF1AFF0A88E077
:100AB000E816F10461F7CE01DF91CF911F910F91FC
:100AC000FF90EF90DF90CF900C94E504B80184E0A4
:100AD000759567958A95E1F7CE010E94FB046F2D0D
:100AE000CE01DF91CF911F910F91FF90EF90DF909A
:100AF000CF900C94FB0440E0682F8BE594E00C94BD
:100B0000280581E00E947B058BE39FE10197F1F7C7
:100B10000895CF93DF93823029F490916A0498600E
:100B200090936A0480936E0410926F0480E4809323
:100B3000700480E18093710480E58093720461E029
:100B400080915F040E946E03809160048F3F19F0D2
:100B500061E00E946E0361E0809161040E946E0377
:100B6000CBE5D4E09E012B55344080916A0484FD8E
:100B70000BC084E090E021962817390744F461E027
:100B80008E810E946E03EECF88E090E0F4CF8BE37D
:100B90009DE00197F1F760E080915F040E944003BF
:100BA00060E0809161040E944003809160048F3F67
:100BB00019F060E00E94400380916A0484FD34C013
:100BC00063E08BE594E00E94FB04CBE4D6E4CE0125
:100BD0000197F1F763E08BE594E00E94FB04219715
:100BE000F1F763E08BE594E00E94FB0483E592E07B
:100BF0000197F1F762E08BE594E00E94FB0480919D
:100C00006A0480620E947B0584E080936B048CE020
:100C10000E947B050E94810582E080936C0486E03F
:100C2000DF91CF910C947B0580620E947B058BE461
:100C300096E40197F1F780916A0480620E947B0537
:100C400083E592E00197F1F780916A0480620E9447
:100C50007B05D5CF90916E04891710F08FEF890F27
:100C6000E82FF0E0E55AFB4F848980680C947B05FF
:100C700041E00E94280581E090E00895FB01019089
:100C80000020E9F73197AF01461B570BDC01ED91CE
:100C9000FC910280F381E02D199420913A04309167
:100CA0003B04232B39F421E0FC018081882361F08F
:100CB00020E00AC0BC0180913604909137040E9464
:100CC000A01021E0892BA1F7822F08950F931F9385
:100CD000CF93DF93EC0188819981009759F02A81A5
:100CE0003B812617370730F081E0DF91CF911F91CC
:100CF0000F9108958B016F5F7F4F0E94B60F009791
:100D000059F0998388831B830A832C813D81232B8F
:100D100059F7FC011082E8CF80E0E7CF1F920F92D5
:100D20000FB60F9211240BB60F922F933F934F9350
:100D30005F936F937F938F939F93AF93BF93EF9343
:100D4000FF9389E993E00E94F001FF91EF91BF9139
:100D5000AF919F918F917F916F915F914F913F9153
:100D60002F910F900BBE0F900FBE0F901F901895F4
:100D70001F920F920FB60F9211240BB60F922F9362
:100D80008F939F93EF93FF93E091A903F091AA03B0
:100D90008081E091AF03F091B00382FD1DC090818E
:100DA0008091B2038F5F8F732091B303821741F05C
:100DB000E091B203F0E0E756FC4F958F8093B203C9
:100DC000FF91EF919F918F912F910F900BBE0F90FC
:100DD0000FBE0F901F9018958081F2CF1F920F9237
:100DE0000FB60F9211242F933F938F939F93AF933E
:100DF000BF938091850390918603A0918703B09162
:100E000088033091840323E0230F2D3758F5019692
:100E1000A11DB11D209384038093850390938603C5
:100E2000A0938703B09388038091890390918A03EC
:100E3000A0918B03B0918C030196A11DB11D8093ED
:100E4000890390938A03A0938B03B0938C03BF9183
:100E5000AF919F918F913F912F910F900FBE0F9067
:100E60001F90189526E8230F0296A11DB11DD2CF21
:100E70001F920F920FB60F9211240BB60F922F9361
:100E80003F934F935F936F937F938F939F93AF9312
:100E9000BF93EF93FF93E0918F03F091900330970E
:100EA00049F0A685B7858585968D91FF16C09C91E2
:100EB0008923B1F4FF91EF91BF91AF919F918F91F1
:100EC0007F916F915F914F913F912F910F900BBE4A
:100ED0000F900FBE0F901F9018959C91892351F78A
:100EE000A389B4899C918589809589238C9386896F
:100EF00097890197F1F7608D718DA685B785558526
:100F000038E020E0CB010197F1F7822F90E0959532
:100F10008795282F4C91452309F02068315091F78F
:100F2000868D81FD209580918E0390E001968F73D0
:100F3000992730918D03381799F0A0918E03B0E076
:100F4000AC5BBC4F2C9380938E03828D938D019765
:100F5000F1F7A389B4898C919589892B8C93AACFB9
:100F6000868D8160868FF1CFCF92DF92EF92FF92D4
:100F700010929C0310929B0398EEC92E93E0D92EF9
:100F8000E12CF12CC0929D03D0929E03E0929F032E
:100F9000F092A0038AE092E090939A0380939903E1
:100FA00085EC90E09093A6038093A50384EC90E0F9
:100FB0009093A8038093A70380EC90E09093AA03FA
:100FC0008093A90381EC90E09093AC038093AB03F2
:100FD00082EC90E09093AE038093AD0386EC90E0BA
:100FE0009093B0038093AF031092B2031092B303B7
:100FF0001092B4031092B50310925E0410925D0437
:101000008EE292E090935C0480935B0486E180938F
:101010005F048FEF8093600487E18093610488E12F
:101020008093620489E1809363048AE1809364047D
:101030008BE180936504109266041092670410920D
:1010400068041092690410926A0481E00E94890584
:1010500010923F0410923E04C0924004D09241048A
:10106000E0924204F09243048CE192E090933D04BC
:1010700080933C0410925304109252041092550431
:10108000109254041092570410925604109259046E
:101090001092580460915A046E7F6D7F60935A04D9
:1010A0006695617081E0682783E00E94400361E0FB
:1010B00083E00E946E03E9E4F2E0E491E0934C04E3
:1010C000E3E0F2E0E491F0E0EE0FFF1FEA51FE4FA3
:1010D0008591949190934E0480934D0460E082E05A
:1010E0000E946E0380915A0481FD04C061E082E099
:1010F0000E94400382E080934804E8E4F2E0E49137
:10110000E0934904E2E0F2E0E491F0E0EE0FFF1F2B
:10111000E453FE4F8591949190934B0480934A043D
:101120001092370410923604109239041092380449
:1011300010923B0410923A0470E060E086E394E081
:101140000E9466062091360430913704811117C041
:101150002115310519F0C9010E942D0F1092370495
:101160001092360410923B0410923A041092390403
:1011700010923804FF90EF90DF90CF900895109276
:101180003B0410923A0465E073E0C901FF90EF90D0
:10119000DF90CF900C94A910CF93DF9300D000D0B4
:1011A0001F921F92CDB7DEB7789484B5826084BD5C
:1011B00084B5816084BD85B5826085BD85B581605B
:1011C00085BD80916E00816080936E0010928100D9
:1011D0008091810082608093810080918100816094
:1011E0008093810080918000816080938000809155
:1011F000B10084608093B1008091B00081608093E1
:10120000B000809191008260809391008091910064
:101210008160809391008091900081608093900024
:101220008091A10082608093A1008091A1008160E3
:101230008093A1008091A00081608093A0008091A4
:10124000210182608093210180912101816080933E
:1012500021018091200181608093200180917A009A
:10126000846080937A0080917A00826080937A0013
:1012700080917A00816080937A0080917A00806802
:1012800080937A001092C100E091A903F091AA0323
:1012900082E08083E091A503F091A6031082E091A3
:1012A000A703F091A80387E680831092B103E09131
:1012B000AD03F091AE0386E08083E091AB03F09143
:1012C000AC03808180618083E091AB03F091AC033B
:1012D000808188608083E091AB03F091AC038081D2
:1012E00080688083E091AB03F091AC0380818F7DB7
:1012F0008083109257041092560410925504109255
:10130000540410925304109252048DE991E090938A
:101310005904809358048091480496EF980F9430B4
:1013200048F02EEC280F243028F022EC280F28302B
:1013300008F061C02DEB30E0309353042093520449
:101340002BE931E030935504209354042CE231E032
:101350003093570420935604943050F02EEC280F0D
:10136000243030F022EC280FF0E0E0E0283010F4D8
:10137000E8E6F0E02081943028F032EC380F383085
:1013800008F4F2C131E0232B943048F09EEC980F22
:10139000943028F08E53F0E0E0E0883010F4E8E676
:1013A000F0E020832091480436EF320F343008F407
:1013B000DDC18EEC820F843008F4D8C182EC820F3C
:1013C000883008F0D6C18DE690E090935004809369
:1013D0004F04343008F0D0C12650330B81E001C0F7
:1013E000880F2A95EAF780935104809158049091D0
:1013F00059040197F1F78091560490915704892B75
:1014000049F1E0918F03F091900324E0EC33F2076F
:1014100009F1309739F0A389B4899C918589809529
:1014200089238C9380915A048E7F80935A04109262
:101430008E0310928D038CE394E09093900380933D
:101440008F03E0914F04F0915004808190915104FA
:10145000892B808361E084E00E946E0361E085E077
:101460000E946E0361E086E00E946E0361E087E007
:101470000E946E0361E082E30E946E0361E083E3F9
:101480000E946E0361E084E30E946E0361E085E3E5
:101490000E946E0360E084E00E94400360E085E00B
:1014A0000E94400360E086E00E94400360E087E025
:1014B0000E94400360E082E30E94400360E083E317
:1014C0000E94400360E084E30E94400360E085E303
:1014D0000E94400382E00E9489050E94810580E00D
:1014E0000E942A0666E372E08BE594E00E943E06C5
:1014F00081E00E942A0600E110E066E472E08BE5DC
:1015000094E00E943E066CE370E080E090E00E9470
:10151000C4030150110989F70E94810580E00E94EF
:101520002A0668E472E08BE594E00E943E066AEFCA
:1015300070E080E090E00E94C4030E94810580E09A
:101540000E942A066CE572E08BE594E00E943E065C
:101550006AEF70E080E090E00E94C4030E94810581
:10156000EE24E394F12C6AE672E089E993E00E94AC
:101570003E0689E993E00E94DA01892B09F0F4C163
:1015800086E00E9417035C0190939203809391037D
:1015900085E00E9417036C0190939403809393035A
:1015A00087E00E9417038C01019709F057C08091D2
:1015B000970390919803892B09F050C0AB2809F04C
:1015C0004DC0CD2809F04AC061E082E30E9440038B
:1015D00060E083E30E94400360E084E30E944003F4
:1015E00061E085E30E94400361E084E00E944003E3
:1015F00010939803009397030E94810580E00E9456
:101600002A066EE772E08BE594E00E943E0681E0D8
:101610000E942A066DE872E08BE594E00E943E0687
:101620006CE271E080E090E00E94C40360E082E33D
:101630000E94400360E083E30E94400360E084E393
:101640000E94400360E085E30E9440030E94810500
:101650000E94F603709396036093950386E00E94C0
:101660001703909392038093910385E00E941703E0
:1016700090939403809393030091910310919203AC
:101680000130110539F080919303909194030197F3
:1016900009F087C08091970390919803892B09F0F6
:1016A00080C060E082E30E94400360E083E30E9428
:1016B000400361E084E30E94400361E085E30E940F
:1016C000400380919303909194030197E9F40230D1
:1016D0001105D0F40E94810580E00E942A0669E984
:1016E00072E08BE594E00E943E0681E00E942A06AB
:1016F00069EA72E08BE594E00E943E0664E670E0E1
:1017000080E090E00E94C403809191039091920345
:10171000019709F0A3CF8091930390919403892BB3
:1017200009F09CCF8091970390919803892B09F041
:1017300095CF0E94810580E00E942A0669E972E047
:101740008BE594E00E943E0681E00E942A0663EB4E
:1017500072E08BE594E00E943E0664E670E080E073
:1017600090E00E94C4037ACF34E00DCE8BE690E087
:101770002CCE90E080E029CE88E0223309F433CEED
:1017800084E0233309F42FCE82E0243309F42BCEF6
:1017900082EC820F883018F42E53330B1FCE81E079
:1017A00022CE0E94810560E082E30E94400360E057
:1017B00083E30E94400360E084E30E94400360E012
:1017C00085E30E9440030E94F60300919503109167
:1017D0009603012E000C220B330B601B710B820B46
:1017E000930B6C3D75408105910508F4C2CE809144
:1017F000970390919803019709F0BBCE0091930352
:10180000109194030115110509F047C01092980337
:101810001092970360E082E30E94400361E083E35B
:101820000E94400360E084E30E94400361E085E39E
:101830000E94400360E084E00E9440030E94810512
:1018400080E00E942A066EEB72E08BE594E00E9435
:101850003E0681E00E942A0668EC72E08BE594E087
:101860000E943E066CE271E080E090E00E94C403BA
:1018700060E082E30E94400360E083E30E94400353
:1018800060E084E30E94400360E085E30E9440033F
:1018900060E084E00E9440036CCE0130110509F045
:1018A00092CF60E082E30E94400361E083E30E9404
:1018B000400361E084E30E94400361E085E30E940D
:1018C000400360E084E00E9440031093980300937B
:1018D00097030E94810580E00E942A0663ED72E072
:1018E0008BE594E00E943E0681E00E942A066EEDA0
:1018F00072E08BE594E00E943E066CE271E080E0CD
:1019000090E00E94C4030E94810580E00E942A06A4
:101910006CEE72E08BE594E00E943E0681E00E944E
:101920002A0664EF72E08BE594E00E943E066CE2CA
:1019300071E080E090E00E94C40360E082E30E94D6
:10194000400360E083E30E94400360E084E30E9480
:10195000400360E085E30E94400360E084E00E9471
:1019600040030E94810505CE1A8219821C821B82C7
:101970001E821D8270E060E0CE0101960E94660624
:1019800029813A8181112BC02115310519F0C90136
:101990000E942D0F1A8219821E821D821C821B82B8
:1019A0000E94020497FD23C08F8318860D811E813B
:1019B0000F5F1F4FB801CE0101960E946606882373
:1019C00079F329813A818D819E81BE01695F7F4FC4
:1019D000820F931F0E94A9101E830D83E1CF1E82E8
:1019E0001D8265E073E0C9010E94A910D9CF8091E2
:1019F000360490913704009709F48DC069817A818B
:101A00006115710509F485C040913804509139047D
:101A10002D813E814217530708F47BC00E94A91014
:101A20008D819E8190933B0480933A041E821D8297
:101A300089819A81009711F00E942D0F40913A04FC
:101A400050913B04609136047091370489E993E02A
:101A50000E947C0142E050E063E073E089E993E09A
:101A60000E947C0186E093E00E944D0681110DC02A
:101A70008BE093E00E944D06811107C080E193E066
:101A80000E944D06882309F45DC061E082E30E9454
:101A9000400360E083E30E94400360E084E30E942F
:101AA000400361E085E30E94400361E084E00E941E
:101AB0004003F0929803E09297030E94810580E032
:101AC0000E942A066EE772E08BE594E00E943E06D3
:101AD0006CE271E080E090E00E94C40360E082E389
:101AE0000E94400360E083E30E94400360E084E3DF
:101AF0000E94400360E085E30E9440030E9481054C
:101B00000E94F60370939603609395030E947F02F0
:101B10002ACD0E942D0F89819A819093370480935A
:101B200036048B819C8190933904809338048D8195
:101B30009E8190933B0480933A041A8219821C82FE
:101B40001B8274CF85E193E00E944D0681115DC038
:101B50008BE193E00E944D06811157C081E293E032
:101B60000E944D06811151C060E082E30E94400353
:101B700061E083E30E94400361E084E30E9440034C
:101B800061E085E30E94400360E084E00E9440033E
:101B900010929803109297030E94810580E00E94A2
:101BA0002A0667E273E08BE594E00E943E066CE251
:101BB00071E080E090E00E94C4030E94810580E013
:101BC0000E942A0666E373E08BE594E00E943E06DD
:101BD0006CE271E080E090E00E94C40360E082E388
:101BE0000E94400360E083E30E94400360E084E3DE
:101BF0000E94400360E085E30E94400360E084E0CF
:101C00000E9440030E94810581CF60E082E30E9430
:101C1000400361E083E30E94400360E084E30E94AC
:101C2000400361E085E30E94400360E084E00E949D
:101C3000400310929803109297030E94810580E060
:101C40000E942A0666E373E08BE594E00E943E065C
:101C50006CE271E080E090E00E94C40360E084E305
:101C60000E94400360E082E30E94400360E083E35F
:101C70000E94400360E085E3C3CF809136049091D9
:101C80003704009711F00E942D0F8CE192E09093A1
:101C90003D0480933C0480918F03909190038C537A
:101CA000944071F4E0914F04F09150049081809140
:101CB00051048095892380831092900310928F03A2
:101CC000089597FB072E16F4009407D077FD09D0EE
:101CD0000E947D0E07FC05D03EF4909581959F4FA4
:101CE0000895709561957F4F0895EE0FFF1F881F2F
:101CF0008BBF0790F691E02D1994AA1BBB1B51E1F5
:101D000007C0AA1FBB1FA617B70710F0A61BB70B6B
:101D1000881F991F5A95A9F780959095BC01CD0110
:101D200008950F931F93CF93DF938230910510F4A2
:101D300082E090E0E0917504F091760430E020E0DC
:101D4000B0E0A0E0309799F42115310509F44AC0BC
:101D5000281B390B24303105D8F58A819B81611508
:101D6000710589F1FB0193838283FE0111C04081DB
:101D700051810281138148175907E0F0481759072C
:101D800099F4109761F012960C93129713961C9386
:101D90003296CF01DF91CF911F910F91089500935B
:101DA000750410937604F4CF2115310551F04217D4
:101DB000530738F0A901DB019A01BD01DF01F801E9
:101DC000C1CFEF01F9CF9093760480937504CDCF06
:101DD000FE01E20FF31F8193919322503109398361
:101DE0002883D7CF2091730430917404232B41F4BE
:101DF0002091020230910302309374042093730403
:101E000020910002309101022115310541F42DB7D6
:101E10003EB74091040250910502241B350BE0911E
:101E20007304F0917404E217F307A0F42E1B3F0B28
:101E30002817390778F0AC014E5F5F4F241735073C
:101E400048F04E0F5F1F50937404409373048193C6
:101E500091939FCFF0E0E0E09CCFCF93DF9300978A
:101E6000E9F0FC01329713821282A0917504B091BF
:101E70007604ED0130E020E01097A1F4208131815B
:101E8000820F931F2091730430917404281739072F
:101E900009F061C0F0937404E0937304DF91CF9173
:101EA0000895EA01CE17DF07E8F54A815B819E01BC
:101EB00041155105B1F7E901FB83EA834991599135
:101EC000C40FD51FEC17FD0761F480819181029644
:101ED000840F951FE90199838883828193819B8375
:101EE0008A83F0E0E0E012968D919C911397009721
:101EF000B9F52D913C911197CD010296820F931F58
:101F000020917304309174042817390739F63097FB
:101F100051F51092760410927504B0937404A09356
:101F20007304BCCFD383C28340815181840F951F3A
:101F3000C817D90761F44E5F5F4F88819981480FB8
:101F4000591F518340838A819B819383828321150A
:101F5000310509F0B0CFF0937604E09375049ECF7D
:101F6000FD01DC01C0CF13821282D7CF4F925F9266
:101F70006F927F928F929F92AF92BF92CF92DF9299
:101F8000EF92FF920F931F93CF93DF938C010097F3
:101F900099F4CB01DF91CF911F910F91FF90EF90BA
:101FA000DF90CF90BF90AF909F908F907F906F9079
:101FB0005F904F900C94910EFC01E60FF71F9C016F
:101FC00022503109E217F30708F4AEC0D901CD91D0
:101FD000DC911197C617D70720F1C530D10578F0ED
:101FE000CE0104978617970750F0C61BD70B229790
:101FF000C193D1936D937C93CF010E942D0FC801A3
:10200000DF91CF911F910F91FF90EF90DF90CF90D4
:10201000BF90AF909F908F907F906F905F904F9008
:1020200008955B01AC1ABD0A4C018C0E9D1EA09157
:102030007504B0917604512C412CF12CE12C1097B1
:1020400031F580917304909174048815990509F015
:102050005CC04616570608F058C080910002909167
:102060000102009741F48DB79EB740910402509150
:102070000502841B950BE817F90708F055C0F0938B
:102080007404E0937304F90171836083B8CF8D9178
:102090009C91119712966C90129713967C901397BF
:1020A000A815B90559F56C0142E0C40ED11CCA143B
:1020B000DB0420F1AC014A195B09DA01129615978D
:1020C00080F06282738251834083D9016D937C9347
:1020D000E114F10471F0D7011396FC93EE9312977B
:1020E0008ECF22968C0F9D1FF90191838083F3017F
:1020F000EFCFF0937604E093750481CF481659062C
:1021000008F42C017D01D3019ACFCB010E94910EDE
:102110007C01009749F0AE01B8010E949710C801F8
:102120000E942D0F87016BCF10E000E068CFFB010C
:10213000DC0102C001900D9241505040D8F7089543
:10214000FB01DC018D91019080190110D9F3990BED
:102150000895FB01DC0101900D920020E1F7089544
:1021600011E0C7E4D1E000E006C0802FFE010E942C
:10217000750E2196011DC834D10780E00807A9F724
:04218000F894FFCF01
:102184000000770480000000000012027C01A90115
:102194005F02DA01B801CC01000000004D047C01AB
:1021A400E2044C04A904C10434040000000038060D
:1021B4007C01E2047B0153797374656D205374616F
:1021C4007274696E67002E004C6F6164696E6720DB
:1021D400436F6D706C65746564212000537973746A
:1021E400656D2041637469766500456E746572207F
:1021F40074686520636F6D6D616E643A2000446F8E
:102204006F7220556E6C6F636B6564210046726F4C
:102214006D20496E73696465005468726561742049
:10222400446574656374656400427265616B20493A
:102234006E210054616D706572696E67210041758D
:10224400746F204C6F636B004163746976617465CD
:102254006421004175746F204C6F636B21004E6FD5
:10226400742041637469766174656400506C6561BF
:1022740073652100436C6F73652054686520446F57
:102284006F72000D0A006F70656E004F50454E006E
:102294004F70656E00636C6F736500434C4F53451C
:1022A40000436C6F736500496E76616C6964204508
:1022B4006E7472792100446F6F72204C6F636B658A
:0422C4006421000091
:00000001FF
